{
  "contractName": "IndiaId",
  "abi": [
    {
      "constant": true,
      "inputs": [],
      "name": "pLib",
      "outputs": [
        {
          "name": "",
          "type": "address"
        }
      ],
      "payable": false,
      "stateMutability": "view",
      "type": "function"
    },
    {
      "constant": false,
      "inputs": [],
      "name": "renounceOwnership",
      "outputs": [],
      "payable": false,
      "stateMutability": "nonpayable",
      "type": "function"
    },
    {
      "constant": true,
      "inputs": [],
      "name": "iniOrgAddr",
      "outputs": [
        {
          "name": "",
          "type": "address"
        }
      ],
      "payable": false,
      "stateMutability": "view",
      "type": "function"
    },
    {
      "constant": true,
      "inputs": [],
      "name": "owner",
      "outputs": [
        {
          "name": "",
          "type": "address"
        }
      ],
      "payable": false,
      "stateMutability": "view",
      "type": "function"
    },
    {
      "constant": true,
      "inputs": [],
      "name": "isOwner",
      "outputs": [
        {
          "name": "",
          "type": "bool"
        }
      ],
      "payable": false,
      "stateMutability": "view",
      "type": "function"
    },
    {
      "constant": false,
      "inputs": [
        {
          "name": "newOwner",
          "type": "address"
        }
      ],
      "name": "transferOwnership",
      "outputs": [],
      "payable": false,
      "stateMutability": "nonpayable",
      "type": "function"
    },
    {
      "inputs": [
        {
          "name": "_orgAddr",
          "type": "address"
        }
      ],
      "payable": false,
      "stateMutability": "nonpayable",
      "type": "constructor"
    },
    {
      "anonymous": false,
      "inputs": [
        {
          "indexed": true,
          "name": "previousOwner",
          "type": "address"
        },
        {
          "indexed": true,
          "name": "newOwner",
          "type": "address"
        }
      ],
      "name": "OwnershipTransferred",
      "type": "event"
    },
    {
      "constant": false,
      "inputs": [
        {
          "name": "uTokenId",
          "type": "uint256"
        },
        {
          "name": "_value",
          "type": "uint256"
        },
        {
          "name": "_name",
          "type": "bytes8"
        },
        {
          "name": "_originCountry",
          "type": "bytes8"
        }
      ],
      "name": "addPersonFromAuction",
      "outputs": [
        {
          "name": "",
          "type": "uint256"
        }
      ],
      "payable": false,
      "stateMutability": "nonpayable",
      "type": "function"
    },
    {
      "constant": false,
      "inputs": [
        {
          "name": "_name",
          "type": "bytes8"
        },
        {
          "name": "_originCountry",
          "type": "bytes8"
        }
      ],
      "name": "addPerson",
      "outputs": [
        {
          "name": "",
          "type": "uint256"
        }
      ],
      "payable": false,
      "stateMutability": "nonpayable",
      "type": "function"
    },
    {
      "constant": true,
      "inputs": [],
      "name": "getPopulation",
      "outputs": [
        {
          "name": "",
          "type": "uint256"
        }
      ],
      "payable": false,
      "stateMutability": "view",
      "type": "function"
    },
    {
      "constant": false,
      "inputs": [
        {
          "name": "tokenId",
          "type": "uint256"
        }
      ],
      "name": "getIntoAuction",
      "outputs": [],
      "payable": false,
      "stateMutability": "nonpayable",
      "type": "function"
    },
    {
      "constant": false,
      "inputs": [
        {
          "name": "tokenId",
          "type": "uint256"
        },
        {
          "name": "value",
          "type": "uint256"
        }
      ],
      "name": "getDetails",
      "outputs": [
        {
          "name": "",
          "type": "bytes8"
        },
        {
          "name": "",
          "type": "bytes8"
        }
      ],
      "payable": false,
      "stateMutability": "nonpayable",
      "type": "function"
    },
    {
      "constant": false,
      "inputs": [
        {
          "name": "tokenId",
          "type": "uint256"
        }
      ],
      "name": "endAuction",
      "outputs": [],
      "payable": false,
      "stateMutability": "nonpayable",
      "type": "function"
    }
  ],
  "bytecode": "0x60806040523480156200001157600080fd5b50604051602080620023ce833981018060405260208110156200003357600080fd5b810190808051906020019092919050505062000054620002e960201b60201c565b6000806101000a81548173ffffffffffffffffffffffffffffffffffffffff021916908373ffffffffffffffffffffffffffffffffffffffff1602179055506000809054906101000a900473ffffffffffffffffffffffffffffffffffffffff1673ffffffffffffffffffffffffffffffffffffffff16600073ffffffffffffffffffffffffffffffffffffffff167f8be0079c531659141344cd1fd0a4f28419497f9722a3daafe3b4186f6b6457e060405160405180910390a380600260006101000a81548173ffffffffffffffffffffffffffffffffffffffff021916908373ffffffffffffffffffffffffffffffffffffffff1602179055506040516200015e906200031a565b604051809103906000f0801580156200017b573d6000803e3d6000fd5b50600160006101000a81548173ffffffffffffffffffffffffffffffffffffffff021916908373ffffffffffffffffffffffffffffffffffffffff160217905550600260009054906101000a900473ffffffffffffffffffffffffffffffffffffffff1673ffffffffffffffffffffffffffffffffffffffff166333a26186306200020b620002f160201b60201c565b6040518363ffffffff1660e01b8152600401808373ffffffffffffffffffffffffffffffffffffffff1673ffffffffffffffffffffffffffffffffffffffff1681526020018273ffffffffffffffffffffffffffffffffffffffff1673ffffffffffffffffffffffffffffffffffffffff168152602001807f496e64696100000000000000000000000000000000000000000000000000000081525060200192505050600060405180830381600087803b158015620002c957600080fd5b505af1158015620002de573d6000803e3d6000fd5b505050505062000328565b600033905090565b60008060009054906101000a900473ffffffffffffffffffffffffffffffffffffffff16905090565b610a7a806200195483390190565b61161c80620003386000396000f3fe608060405234801561001057600080fd5b50600436106100b45760003560e01c80638c02d693116100715780638c02d693146102715780638da5cb5b146102bb5780638f32d59b14610305578063b9a2de3a14610327578063e205d7c814610355578063f2fde38b14610414576100b4565b806303f65696146100b9578063197d58cc1461014f5780632b4ae7bd1461017d578063314930441461019b578063477b5b47146101e5578063715018a614610267575b600080fd5b610139600480360360808110156100cf57600080fd5b810190808035906020019092919080359060200190929190803577ffffffffffffffffffffffffffffffffffffffffffffffff19169060200190929190803577ffffffffffffffffffffffffffffffffffffffffffffffff19169060200190929190505050610458565b6040518082815260200191505060405180910390f35b61017b6004803603602081101561016557600080fd5b810190808035906020019092919050505061062e565b005b610185610982565b6040518082815260200191505060405180910390f35b6101a3610a2c565b604051808273ffffffffffffffffffffffffffffffffffffffff1673ffffffffffffffffffffffffffffffffffffffff16815260200191505060405180910390f35b610251600480360360408110156101fb57600080fd5b81019080803577ffffffffffffffffffffffffffffffffffffffffffffffff19169060200190929190803577ffffffffffffffffffffffffffffffffffffffffffffffff19169060200190929190505050610a52565b6040518082815260200191505060405180910390f35b61026f610ded565b005b610279610f26565b604051808273ffffffffffffffffffffffffffffffffffffffff1673ffffffffffffffffffffffffffffffffffffffff16815260200191505060405180910390f35b6102c3610f4c565b604051808273ffffffffffffffffffffffffffffffffffffffff1673ffffffffffffffffffffffffffffffffffffffff16815260200191505060405180910390f35b61030d610f75565b604051808215151515815260200191505060405180910390f35b6103536004803603602081101561033d57600080fd5b8101908080359060200190929190505050610fd3565b005b61038b6004803603604081101561036b57600080fd5b810190808035906020019092919080359060200190929190505050611181565b604051808377ffffffffffffffffffffffffffffffffffffffffffffffff191677ffffffffffffffffffffffffffffffffffffffffffffffff191681526020018277ffffffffffffffffffffffffffffffffffffffffffffffff191677ffffffffffffffffffffffffffffffffffffffffffffffff191681526020019250505060405180910390f35b6104566004803603602081101561042a57600080fd5b81019080803573ffffffffffffffffffffffffffffffffffffffff1690602001909291905050506113f8565b005b6000600160009054906101000a900473ffffffffffffffffffffffffffffffffffffffff1673ffffffffffffffffffffffffffffffffffffffff1663b60350e286858786306104a5610f4c565b6040518763ffffffff1660e01b8152600401808781526020018677ffffffffffffffffffffffffffffffffffffffffffffffff191677ffffffffffffffffffffffffffffffffffffffffffffffff191681526020018581526020018477ffffffffffffffffffffffffffffffffffffffffffffffff191677ffffffffffffffffffffffffffffffffffffffffffffffff19168152602001807f496e6469610000000000000000000000000000000000000000000000000000008152506020018373ffffffffffffffffffffffffffffffffffffffff1673ffffffffffffffffffffffffffffffffffffffff1681526020018273ffffffffffffffffffffffffffffffffffffffff1673ffffffffffffffffffffffffffffffffffffffff1681526020019650505050505050602060405180830381600087803b1580156105ea57600080fd5b505af11580156105fe573d6000803e3d6000fd5b505050506040513d602081101561061457600080fd5b810190808051906020019092919050505050949350505050565b610636610f75565b6106a8576040517f08c379a00000000000000000000000000000000000000000000000000000000081526004018080602001828103825260208152602001807f4f776e61626c653a2063616c6c6572206973206e6f7420746865206f776e657281525060200191505060405180910390fd5b600160009054906101000a900473ffffffffffffffffffffffffffffffffffffffff1673ffffffffffffffffffffffffffffffffffffffff1663aa0e488e600160009054906101000a900473ffffffffffffffffffffffffffffffffffffffff1673ffffffffffffffffffffffffffffffffffffffff166333a956e8846040518263ffffffff1660e01b81526004018082815260200191505060206040518083038186803b15801561075957600080fd5b505afa15801561076d573d6000803e3d6000fd5b505050506040513d602081101561078357600080fd5b81019080805190602001909291905050506040518263ffffffff1660e01b815260040180828152602001915050600060405180830381600087803b1580156107ca57600080fd5b505af11580156107de573d6000803e3d6000fd5b50505050600260009054906101000a900473ffffffffffffffffffffffffffffffffffffffff1673ffffffffffffffffffffffffffffffffffffffff1663da282dc7600160009054906101000a900473ffffffffffffffffffffffffffffffffffffffff1673ffffffffffffffffffffffffffffffffffffffff166333a956e8846040518263ffffffff1660e01b81526004018082815260200191505060206040518083038186803b15801561089357600080fd5b505afa1580156108a7573d6000803e3d6000fd5b505050506040513d60208110156108bd57600080fd5b81019080805190602001909291905050506108d6610f4c565b6040518363ffffffff1660e01b8152600401808381526020018273ffffffffffffffffffffffffffffffffffffffff1673ffffffffffffffffffffffffffffffffffffffff168152602001807f496e64696100000000000000000000000000000000000000000000000000000081525060200192505050600060405180830381600087803b15801561096757600080fd5b505af115801561097b573d6000803e3d6000fd5b5050505050565b6000600160009054906101000a900473ffffffffffffffffffffffffffffffffffffffff1673ffffffffffffffffffffffffffffffffffffffff16632b4ae7bd6040518163ffffffff1660e01b815260040160206040518083038186803b1580156109ec57600080fd5b505afa158015610a00573d6000803e3d6000fd5b505050506040513d6020811015610a1657600080fd5b8101908080519060200190929190505050905090565b600160009054906101000a900473ffffffffffffffffffffffffffffffffffffffff1681565b6000610a5c610f75565b610ace576040517f08c379a00000000000000000000000000000000000000000000000000000000081526004018080602001828103825260208152602001807f4f776e61626c653a2063616c6c6572206973206e6f7420746865206f776e657281525060200191505060405180910390fd5b6000600260009054906101000a900473ffffffffffffffffffffffffffffffffffffffff1673ffffffffffffffffffffffffffffffffffffffff16631a9f035930610b17610f4c565b6040518363ffffffff1660e01b8152600401808373ffffffffffffffffffffffffffffffffffffffff1673ffffffffffffffffffffffffffffffffffffffff1681526020018273ffffffffffffffffffffffffffffffffffffffff1673ffffffffffffffffffffffffffffffffffffffff168152602001807f496e64696100000000000000000000000000000000000000000000000000000081525060200192505050602060405180830381600087803b158015610bd457600080fd5b505af1158015610be8573d6000803e3d6000fd5b505050506040513d6020811015610bfe57600080fd5b810190808051906020019092919050505090506000600160009054906101000a900473ffffffffffffffffffffffffffffffffffffffff1673ffffffffffffffffffffffffffffffffffffffff1663b60350e283876127108830610c60610f4c565b6040518763ffffffff1660e01b8152600401808781526020018677ffffffffffffffffffffffffffffffffffffffffffffffff191677ffffffffffffffffffffffffffffffffffffffffffffffff191681526020018581526020018477ffffffffffffffffffffffffffffffffffffffffffffffff191677ffffffffffffffffffffffffffffffffffffffffffffffff19168152602001807f496e6469610000000000000000000000000000000000000000000000000000008152506020018373ffffffffffffffffffffffffffffffffffffffff1673ffffffffffffffffffffffffffffffffffffffff1681526020018273ffffffffffffffffffffffffffffffffffffffff1673ffffffffffffffffffffffffffffffffffffffff1681526020019650505050505050602060405180830381600087803b158015610da557600080fd5b505af1158015610db9573d6000803e3d6000fd5b505050506040513d6020811015610dcf57600080fd5b81019080805190602001909291905050509050809250505092915050565b610df5610f75565b610e67576040517f08c379a00000000000000000000000000000000000000000000000000000000081526004018080602001828103825260208152602001807f4f776e61626c653a2063616c6c6572206973206e6f7420746865206f776e657281525060200191505060405180910390fd5b600073ffffffffffffffffffffffffffffffffffffffff166000809054906101000a900473ffffffffffffffffffffffffffffffffffffffff1673ffffffffffffffffffffffffffffffffffffffff167f8be0079c531659141344cd1fd0a4f28419497f9722a3daafe3b4186f6b6457e060405160405180910390a360008060006101000a81548173ffffffffffffffffffffffffffffffffffffffff021916908373ffffffffffffffffffffffffffffffffffffffff160217905550565b600260009054906101000a900473ffffffffffffffffffffffffffffffffffffffff1681565b60008060009054906101000a900473ffffffffffffffffffffffffffffffffffffffff16905090565b60008060009054906101000a900473ffffffffffffffffffffffffffffffffffffffff1673ffffffffffffffffffffffffffffffffffffffff16610fb761147e565b73ffffffffffffffffffffffffffffffffffffffff1614905090565b6000600160009054906101000a900473ffffffffffffffffffffffffffffffffffffffff1673ffffffffffffffffffffffffffffffffffffffff166333a956e8836040518263ffffffff1660e01b81526004018082815260200191505060206040518083038186803b15801561104857600080fd5b505afa15801561105c573d6000803e3d6000fd5b505050506040513d602081101561107257600080fd5b81019080805190602001909291905050509050600260009054906101000a900473ffffffffffffffffffffffffffffffffffffffff1673ffffffffffffffffffffffffffffffffffffffff166346a8ae1382846110cd610f4c565b6040518463ffffffff1660e01b8152600401808481526020018381526020018273ffffffffffffffffffffffffffffffffffffffff1673ffffffffffffffffffffffffffffffffffffffff168152602001807f496e6469610000000000000000000000000000000000000000000000000000008152506020019350505050600060405180830381600087803b15801561116557600080fd5b505af1158015611179573d6000803e3d6000fd5b505050505050565b600080600160009054906101000a900473ffffffffffffffffffffffffffffffffffffffff1673ffffffffffffffffffffffffffffffffffffffff1663b5ce6399856040518263ffffffff1660e01b815260040180828152602001915050600060405180830381600087803b1580156111f957600080fd5b505af115801561120d573d6000803e3d6000fd5b50505050600160009054906101000a900473ffffffffffffffffffffffffffffffffffffffff1673ffffffffffffffffffffffffffffffffffffffff1663549e5f00856040518263ffffffff1660e01b815260040180828152602001602001915050600060405180830381600087803b15801561128957600080fd5b505af115801561129d573d6000803e3d6000fd5b50505050600160009054906101000a900473ffffffffffffffffffffffffffffffffffffffff1673ffffffffffffffffffffffffffffffffffffffff16637b8d56e385856040518363ffffffff1660e01b81526004018083815260200182815260200192505050600060405180830381600087803b15801561131e57600080fd5b505af1158015611332573d6000803e3d6000fd5b50505050600160009054906101000a900473ffffffffffffffffffffffffffffffffffffffff1673ffffffffffffffffffffffffffffffffffffffff1663b93a89f7856040518263ffffffff1660e01b815260040180828152602001915050604080518083038186803b1580156113a857600080fd5b505afa1580156113bc573d6000803e3d6000fd5b505050506040513d60408110156113d257600080fd5b810190808051906020019092919080519060200190929190505050915091509250929050565b611400610f75565b611472576040517f08c379a00000000000000000000000000000000000000000000000000000000081526004018080602001828103825260208152602001807f4f776e61626c653a2063616c6c6572206973206e6f7420746865206f776e657281525060200191505060405180910390fd5b61147b81611486565b50565b600033905090565b600073ffffffffffffffffffffffffffffffffffffffff168173ffffffffffffffffffffffffffffffffffffffff16141561150c576040517f08c379a00000000000000000000000000000000000000000000000000000000081526004018080602001828103825260268152602001806115cb6026913960400191505060405180910390fd5b8073ffffffffffffffffffffffffffffffffffffffff166000809054906101000a900473ffffffffffffffffffffffffffffffffffffffff1673ffffffffffffffffffffffffffffffffffffffff167f8be0079c531659141344cd1fd0a4f28419497f9722a3daafe3b4186f6b6457e060405160405180910390a3806000806101000a81548173ffffffffffffffffffffffffffffffffffffffff021916908373ffffffffffffffffffffffffffffffffffffffff1602179055505056fe4f776e61626c653a206e6577206f776e657220697320746865207a65726f2061646472657373a165627a7a72305820dadcdb7d98ccbcf6e91b4ea582c5904bbc5de0d56822508e19015c4c3dd0f3710029608060405234801561001057600080fd5b50610a5a806100206000396000f3fe608060405234801561001057600080fd5b50600436106100885760003560e01c8063aa0e488e1161005b578063aa0e488e14610178578063b5ce6399146101a6578063b60350e2146101d4578063b93a89f7146102cf57610088565b80632b4ae7bd1461008d57806333a956e8146100ab578063549e5f00146100ed5780637b8d56e314610140575b600080fd5b610095610384565b6040518082815260200191505060405180910390f35b6100d7600480360360208110156100c157600080fd5b8101908080359060200190929190505050610395565b6040518082815260200191505060405180910390f35b61013e6004803603604081101561010357600080fd5b8101908080359060200190929190803577ffffffffffffffffffffffffffffffffffffffffffffffff191690602001909291905050506103bc565b005b6101766004803603604081101561015657600080fd5b8101908080359060200190929190803590602001909291905050506103fe565b005b6101a46004803603602081101561018e57600080fd5b8101908080359060200190929190505050610425565b005b6101d2600480360360208110156101bc57600080fd5b810190808035906020019092919050505061045f565b005b6102b9600480360360e08110156101ea57600080fd5b8101908080359060200190929190803577ffffffffffffffffffffffffffffffffffffffffffffffff1916906020019092919080359060200190929190803577ffffffffffffffffffffffffffffffffffffffffffffffff19169060200190929190803577ffffffffffffffffffffffffffffffffffffffffffffffff19169060200190929190803573ffffffffffffffffffffffffffffffffffffffff169060200190929190803573ffffffffffffffffffffffffffffffffffffffff169060200190929190505050610498565b6040518082815260200191505060405180910390f35b6102fb600480360360208110156102e557600080fd5b8101908080359060200190929190505050610718565b604051808377ffffffffffffffffffffffffffffffffffffffffffffffff191677ffffffffffffffffffffffffffffffffffffffffffffffff191681526020018277ffffffffffffffffffffffffffffffffffffffffffffffff191677ffffffffffffffffffffffffffffffffffffffffffffffff191681526020019250505060405180910390f35b6000610390600161093d565b905090565b60008082815481106103a357fe5b9060005260206000209060060201600101549050919050565b80600083815481106103ca57fe5b906000526020600020906006020160030160086101000a81548167ffffffffffffffff021916908360c01c02179055505050565b806000838154811061040c57fe5b9060005260206000209060060201600201819055505050565b60016000828154811061043457fe5b906000526020600020906006020160050160146101000a81548160ff02191690831515021790555050565b600080828154811061046d57fe5b906000526020600020906006020160050160156101000a81548160ff02191690831515021790555050565b60006104a2610961565b6040518061012001604052808977ffffffffffffffffffffffffffffffffffffffffffffffff191681526020018a81526020018881526020018777ffffffffffffffffffffffffffffffffffffffffffffffff191681526020018677ffffffffffffffffffffffffffffffffffffffffffffffff191681526020018573ffffffffffffffffffffffffffffffffffffffff1681526020018473ffffffffffffffffffffffffffffffffffffffff1681526020016000151581526020016001151581525090506000819080600181540180825580915050906001820390600052602060002090600602016000909192909190915060008201518160000160006101000a81548167ffffffffffffffff021916908360c01c0217905550602082015181600101556040820151816002015560608201518160030160006101000a81548167ffffffffffffffff021916908360c01c021790555060808201518160030160086101000a81548167ffffffffffffffff021916908360c01c021790555060a08201518160040160006101000a81548173ffffffffffffffffffffffffffffffffffffffff021916908373ffffffffffffffffffffffffffffffffffffffff16021790555060c08201518160050160006101000a81548173ffffffffffffffffffffffffffffffffffffffff021916908373ffffffffffffffffffffffffffffffffffffffff16021790555060e08201518160050160146101000a81548160ff0219169083151502179055506101008201518160050160156101000a81548160ff0219169083151502179055505050506106fd600161094b565b6001610709600161093d565b03915050979650505050505050565b600080610723610961565b6000848154811061073057fe5b9060005260206000209060060201604051806101200160405290816000820160009054906101000a900460c01b77ffffffffffffffffffffffffffffffffffffffffffffffff191677ffffffffffffffffffffffffffffffffffffffffffffffff1916815260200160018201548152602001600282015481526020016003820160009054906101000a900460c01b77ffffffffffffffffffffffffffffffffffffffffffffffff191677ffffffffffffffffffffffffffffffffffffffffffffffff191681526020016003820160089054906101000a900460c01b77ffffffffffffffffffffffffffffffffffffffffffffffff191677ffffffffffffffffffffffffffffffffffffffffffffffff191681526020016004820160009054906101000a900473ffffffffffffffffffffffffffffffffffffffff1673ffffffffffffffffffffffffffffffffffffffff1673ffffffffffffffffffffffffffffffffffffffff1681526020016005820160009054906101000a900473ffffffffffffffffffffffffffffffffffffffff1673ffffffffffffffffffffffffffffffffffffffff1673ffffffffffffffffffffffffffffffffffffffff1681526020016005820160149054906101000a900460ff161515151581526020016005820160159054906101000a900460ff1615151515815250509050806000015181606001519250925050915091565b600081600001549050919050565b6001816000016000828254019250508190555050565b604051806101200160405280600077ffffffffffffffffffffffffffffffffffffffffffffffff191681526020016000815260200160008152602001600077ffffffffffffffffffffffffffffffffffffffffffffffff19168152602001600077ffffffffffffffffffffffffffffffffffffffffffffffff19168152602001600073ffffffffffffffffffffffffffffffffffffffff168152602001600073ffffffffffffffffffffffffffffffffffffffff168152602001600015158152602001600015158152509056fea165627a7a72305820968504b773dd473236c3a716b6a7dac81d3088ab39ea4321657940dcd2e513f10029",
  "source": "pragma solidity ^0.5.6;\n\nimport \"../contracts/Country.sol\";\nimport \"../contracts/PersonLib.sol\";\nimport \"../contracts/Organization.sol\";\n\ncontract IndiaId is Country{\n    using Counters for Counters.Counter;\n\n    PersonLib public pLib;\n    Organization public iniOrgAddr;\n\n    constructor(Organization _orgAddr) public{\n        iniOrgAddr = _orgAddr;\n        pLib = new PersonLib();\n        iniOrgAddr.registerCountry(this, owner(), \"India\");\n    }\n    function addPersonFromAuction(\n        uint256 uTokenId,\n        uint256 _value,\n        bytes8 _name,\n        bytes8 _originCountry) public returns(uint256){\n            pLib.addPerson(uTokenId, _name, _value, _originCountry, \"India\", this, owner());\n        }\n    function addPerson(\n        bytes8 _name,\n        bytes8 _originCountry\n    )  public onlyOwner returns(uint256){\n        uint256 uTokenId = iniOrgAddr.createToken(this, owner(), \"India\");\n        uint tokenId = pLib.addPerson(uTokenId, _name, 10000, _originCountry, \"India\", this, owner());\n        return tokenId;\n    }\n\n    function getPopulation() public view returns(uint256){\n        return pLib.getPopulation();\n    }\n    //There is a bug here.\n    //Because if this is not included as a default impl in the Country contract, people can change the state of auction\n    //which will not enable the people to transfer the asset.\n    function getIntoAuction(uint256 tokenId) public onlyOwner{\n        //First check if this token is already in auction\n        pLib.setForAuction(pLib.getUTokenID(tokenId));\n        iniOrgAddr.getIntoAuction(pLib.getUTokenID(tokenId), owner(), \"India\");\n    }\n    function getDetails(uint256 tokenId, uint256 value) public returns(bytes8, bytes8){\n        pLib.resetStatus(tokenId);\n        pLib.setPresentCountry(tokenId, \"\");\n        pLib.setValue(tokenId, value);\n\n        return (pLib.getDetails(tokenId));\n    }\n    function endAuction(uint256 tokenId) public{\n        uint256 uTI = pLib.getUTokenID(tokenId);\n        iniOrgAddr.endAuction(uTI, tokenId, owner(), \"India\");\n    }\n}",
  "sourcePath": "/Users/harishgunjalli/Desktop/Ethereum/Project1/id-management/contracts/IndiaId.sol",
  "compiler": {
    "name": "solc",
    "version": "0.5.8+commit.23d335f2.Emscripten.clang"
  },
  "schemaVersion": "3.0.16",
  "updatedAt": "2019-11-01T18:31:30.543Z",
  "devdoc": {
    "methods": {
      "isOwner()": {
        "details": "Returns true if the caller is the current owner."
      },
      "owner()": {
        "details": "Returns the address of the current owner."
      },
      "renounceOwnership()": {
        "details": "Leaves the contract without owner. It will not be possible to call `onlyOwner` functions anymore. Can only be called by the current owner.     * NOTE: Renouncing ownership will leave the contract without an owner, thereby removing any functionality that is only available to the owner."
      },
      "transferOwnership(address)": {
        "details": "Transfers ownership of the contract to a new account (`newOwner`). Can only be called by the current owner."
      }
    }
  },
  "userdoc": {
    "methods": {}
  }
}