{
  "contractName": "PersonLib",
  "abi": [
    {
      "constant": false,
      "inputs": [
        {
          "name": "tokenId",
          "type": "uint256"
        },
        {
          "name": "_name",
          "type": "bytes8"
        },
        {
          "name": "_value",
          "type": "uint256"
        },
        {
          "name": "_originCountry",
          "type": "bytes8"
        },
        {
          "name": "_presentCountry",
          "type": "bytes8"
        },
        {
          "name": "_coName",
          "type": "address"
        },
        {
          "name": "_coOwner",
          "type": "address"
        }
      ],
      "name": "addPerson",
      "outputs": [
        {
          "name": "",
          "type": "uint256"
        }
      ],
      "payable": false,
      "stateMutability": "nonpayable",
      "type": "function"
    },
    {
      "constant": false,
      "inputs": [
        {
          "name": "tokenId",
          "type": "uint256"
        },
        {
          "name": "_value",
          "type": "uint256"
        }
      ],
      "name": "setValue",
      "outputs": [],
      "payable": false,
      "stateMutability": "nonpayable",
      "type": "function"
    },
    {
      "constant": false,
      "inputs": [
        {
          "name": "tokenId",
          "type": "uint256"
        },
        {
          "name": "_presentCountry",
          "type": "bytes8"
        }
      ],
      "name": "setPresentCountry",
      "outputs": [],
      "payable": false,
      "stateMutability": "nonpayable",
      "type": "function"
    },
    {
      "constant": false,
      "inputs": [
        {
          "name": "tokenId",
          "type": "uint256"
        }
      ],
      "name": "setForAuction",
      "outputs": [],
      "payable": false,
      "stateMutability": "nonpayable",
      "type": "function"
    },
    {
      "constant": false,
      "inputs": [
        {
          "name": "tokenId",
          "type": "uint256"
        }
      ],
      "name": "resetStatus",
      "outputs": [],
      "payable": false,
      "stateMutability": "nonpayable",
      "type": "function"
    },
    {
      "constant": true,
      "inputs": [],
      "name": "getPopulation",
      "outputs": [
        {
          "name": "",
          "type": "uint256"
        }
      ],
      "payable": false,
      "stateMutability": "view",
      "type": "function"
    },
    {
      "constant": true,
      "inputs": [
        {
          "name": "tokenId",
          "type": "uint256"
        }
      ],
      "name": "getDetails",
      "outputs": [
        {
          "name": "",
          "type": "bytes8"
        },
        {
          "name": "",
          "type": "bytes8"
        }
      ],
      "payable": false,
      "stateMutability": "view",
      "type": "function"
    },
    {
      "constant": true,
      "inputs": [
        {
          "name": "tokenId",
          "type": "uint256"
        }
      ],
      "name": "getUTokenID",
      "outputs": [
        {
          "name": "",
          "type": "uint256"
        }
      ],
      "payable": false,
      "stateMutability": "view",
      "type": "function"
    }
  ],
  "bytecode": "0x608060405234801561001057600080fd5b50610a5a806100206000396000f3fe608060405234801561001057600080fd5b50600436106100885760003560e01c8063aa0e488e1161005b578063aa0e488e14610178578063b5ce6399146101a6578063b60350e2146101d4578063b93a89f7146102cf57610088565b80632b4ae7bd1461008d57806333a956e8146100ab578063549e5f00146100ed5780637b8d56e314610140575b600080fd5b610095610384565b6040518082815260200191505060405180910390f35b6100d7600480360360208110156100c157600080fd5b8101908080359060200190929190505050610395565b6040518082815260200191505060405180910390f35b61013e6004803603604081101561010357600080fd5b8101908080359060200190929190803577ffffffffffffffffffffffffffffffffffffffffffffffff191690602001909291905050506103bc565b005b6101766004803603604081101561015657600080fd5b8101908080359060200190929190803590602001909291905050506103fe565b005b6101a46004803603602081101561018e57600080fd5b8101908080359060200190929190505050610425565b005b6101d2600480360360208110156101bc57600080fd5b810190808035906020019092919050505061045f565b005b6102b9600480360360e08110156101ea57600080fd5b8101908080359060200190929190803577ffffffffffffffffffffffffffffffffffffffffffffffff1916906020019092919080359060200190929190803577ffffffffffffffffffffffffffffffffffffffffffffffff19169060200190929190803577ffffffffffffffffffffffffffffffffffffffffffffffff19169060200190929190803573ffffffffffffffffffffffffffffffffffffffff169060200190929190803573ffffffffffffffffffffffffffffffffffffffff169060200190929190505050610498565b6040518082815260200191505060405180910390f35b6102fb600480360360208110156102e557600080fd5b8101908080359060200190929190505050610718565b604051808377ffffffffffffffffffffffffffffffffffffffffffffffff191677ffffffffffffffffffffffffffffffffffffffffffffffff191681526020018277ffffffffffffffffffffffffffffffffffffffffffffffff191677ffffffffffffffffffffffffffffffffffffffffffffffff191681526020019250505060405180910390f35b6000610390600161093d565b905090565b60008082815481106103a357fe5b9060005260206000209060060201600101549050919050565b80600083815481106103ca57fe5b906000526020600020906006020160030160086101000a81548167ffffffffffffffff021916908360c01c02179055505050565b806000838154811061040c57fe5b9060005260206000209060060201600201819055505050565b60016000828154811061043457fe5b906000526020600020906006020160050160146101000a81548160ff02191690831515021790555050565b600080828154811061046d57fe5b906000526020600020906006020160050160156101000a81548160ff02191690831515021790555050565b60006104a2610961565b6040518061012001604052808977ffffffffffffffffffffffffffffffffffffffffffffffff191681526020018a81526020018881526020018777ffffffffffffffffffffffffffffffffffffffffffffffff191681526020018677ffffffffffffffffffffffffffffffffffffffffffffffff191681526020018573ffffffffffffffffffffffffffffffffffffffff1681526020018473ffffffffffffffffffffffffffffffffffffffff1681526020016000151581526020016001151581525090506000819080600181540180825580915050906001820390600052602060002090600602016000909192909190915060008201518160000160006101000a81548167ffffffffffffffff021916908360c01c0217905550602082015181600101556040820151816002015560608201518160030160006101000a81548167ffffffffffffffff021916908360c01c021790555060808201518160030160086101000a81548167ffffffffffffffff021916908360c01c021790555060a08201518160040160006101000a81548173ffffffffffffffffffffffffffffffffffffffff021916908373ffffffffffffffffffffffffffffffffffffffff16021790555060c08201518160050160006101000a81548173ffffffffffffffffffffffffffffffffffffffff021916908373ffffffffffffffffffffffffffffffffffffffff16021790555060e08201518160050160146101000a81548160ff0219169083151502179055506101008201518160050160156101000a81548160ff0219169083151502179055505050506106fd600161094b565b6001610709600161093d565b03915050979650505050505050565b600080610723610961565b6000848154811061073057fe5b9060005260206000209060060201604051806101200160405290816000820160009054906101000a900460c01b77ffffffffffffffffffffffffffffffffffffffffffffffff191677ffffffffffffffffffffffffffffffffffffffffffffffff1916815260200160018201548152602001600282015481526020016003820160009054906101000a900460c01b77ffffffffffffffffffffffffffffffffffffffffffffffff191677ffffffffffffffffffffffffffffffffffffffffffffffff191681526020016003820160089054906101000a900460c01b77ffffffffffffffffffffffffffffffffffffffffffffffff191677ffffffffffffffffffffffffffffffffffffffffffffffff191681526020016004820160009054906101000a900473ffffffffffffffffffffffffffffffffffffffff1673ffffffffffffffffffffffffffffffffffffffff1673ffffffffffffffffffffffffffffffffffffffff1681526020016005820160009054906101000a900473ffffffffffffffffffffffffffffffffffffffff1673ffffffffffffffffffffffffffffffffffffffff1673ffffffffffffffffffffffffffffffffffffffff1681526020016005820160149054906101000a900460ff161515151581526020016005820160159054906101000a900460ff1615151515815250509050806000015181606001519250925050915091565b600081600001549050919050565b6001816000016000828254019250508190555050565b604051806101200160405280600077ffffffffffffffffffffffffffffffffffffffffffffffff191681526020016000815260200160008152602001600077ffffffffffffffffffffffffffffffffffffffffffffffff19168152602001600077ffffffffffffffffffffffffffffffffffffffffffffffff19168152602001600073ffffffffffffffffffffffffffffffffffffffff168152602001600073ffffffffffffffffffffffffffffffffffffffff168152602001600015158152602001600015158152509056fea165627a7a72305820968504b773dd473236c3a716b6a7dac81d3088ab39ea4321657940dcd2e513f10029",
  "source": "pragma solidity ^0.5.6;\n\nimport \"../node_modules/@openzeppelin/contracts/drafts/Counters.sol\";\nimport \"../contracts/Country.sol\";\n\ncontract PersonLib{\n    using Counters for Counters.Counter;\n    struct Person{\n        bytes8 _name;\n        uint256 uTokenId;\n        uint256 _value;\n        bytes8 _originCountry;\n        bytes8 _presentCountry;\n        Country _coName;\n        address _coOwner;\n        bool inAuction;\n        bool isActive;\n    }\n    Person[] private per;\n    Counters.Counter totalPopulation;\n\n    function addPerson(\n        uint256 tokenId,\n        bytes8 _name,\n        uint256 _value,\n        bytes8 _originCountry,\n        bytes8 _presentCountry,\n        Country _coName,\n        address _coOwner) public returns(uint256) {\n\n            Person memory p = Person(\n                                _name,\n                                tokenId,\n                                _value,\n                                _originCountry,\n                                _presentCountry,\n                                _coName,\n                                _coOwner,\n                                false,\n                                true);\n            per.push(p);\n            totalPopulation.increment();\n            return (uint256(totalPopulation.current())-1);\n    }\n    function setValue(uint256 tokenId, uint256 _value) public{\n        per[tokenId]._value = _value;\n    }\n    function setPresentCountry(uint256 tokenId, bytes8 _presentCountry) public{\n        per[tokenId]._presentCountry = _presentCountry;\n    }\n    function setForAuction(uint256 tokenId) public{\n        per[tokenId].inAuction = true;\n    }\n    function resetStatus(uint256 tokenId) public{\n        per[tokenId].isActive = false;\n    }\n    function getPopulation() public view returns(uint256){\n        return totalPopulation.current();\n    }\n    function getDetails(uint256 tokenId) public view returns(bytes8, bytes8){\n        Person memory p = per[tokenId];\n        return (p._name, p._originCountry);\n    }\n    function getUTokenID(uint256 tokenId) public view returns(uint256){\n        return per[tokenId].uTokenId;\n    }\n}",
  "sourcePath": "/Users/harishgunjalli/Desktop/Ethereum/Project1/id-management/contracts/PersonLib.sol",
  "compiler": {
    "name": "solc",
    "version": "0.5.8+commit.23d335f2.Emscripten.clang"
  },
  "schemaVersion": "3.0.16",
  "updatedAt": "2019-11-01T18:29:30.867Z",
  "devdoc": {
    "methods": {}
  },
  "userdoc": {
    "methods": {}
  }
}